:020000040800F2
:10000000A03B00200D030008AD6400083D57000828
:100010008163000815300008197300080000000013
:100020000000000000000000000000007502000851
:100030006530000800000000B9020008016E0008E9
:1000400027030008270300082703000827030008E8
:1000500027030008270300082703000827030008D8
:1000600027030008270300082703000827030008C8
:100070002703000827030008193000082703000899
:1000800027030008270300082703000827030008A8
:100090002703000827030008270300082703000898
:1000A00027030008956E00082703000827030008AF
:1000B000A16E0008AD6E0008B96E000827030008A5
:1000C0002703000827030008270300082703000868
:1000D000270300080D730008270300082703000802
:1000E00027030008270300082703000800F002F890
:1000F00000F0B0F80AA090E8000C82448344AAF112
:100100000107DA4501D100F0A5F8AFF2090EBAE80F
:100110000F0013F0010F18BFFB1A43F0010318473B
:1001200024E0000044E000000A444FF0000C10F806
:10013000013B13F0070408BF10F8014B1D1108BF65
:1001400010F8015B641E05D010F8016B641E01F805
:10015000016BF9D113F0080F1EBF10F8014BAD1C55
:100160000C1B09D16D1E58BF01F801CBFAD505E073
:1001700014F8016B01F8016B6D1EF9D59142D6D3CD
:10018000704700000023002400250026103A28BFF5
:1001900078C1FBD8520728BF30C148BF0B607047F9
:1001A0006E2900F06785702900F0ED8166290BF05B
:1001B000958365290BF0928367290BF08F83612962
:1001C0000BF08E8303681B0A28BF41F08001692968
:1001D00000F05E81642900F05B81752900F0588190
:1001E0006F2901F06E80782900F0B981E92901F0CA
:1001F0000980E42901F00680F52901F00380EF2948
:1002000001F06B80F82900F0B8810368DB0928BF92
:1002100041F08001632900F07887732900F07D8721
:10022000E32901F04385F32901F048850020704758
:100230001FB501F01DFB0400002000210AF004FAA4
:10024000401C6060002000210AF0E8F9E0601FBD5A
:1002500010B510BD01F08AFF1146FFF7E9FF08F065
:10026000F1FB02F0DBF903B4FFF7F2FF03BC07F088
:100270005FF90000224B19680868B0E8F00F80F3BE
:100280000988BFF36F8F4FF0000080F311884EF0A4
:100290000D0E70470000000006480068006880F3FB
:1002A000088862B661B6BFF34F8FBFF36F8F00DF70
:1002B00000BF00BF08ED00E0EFF30980BFF36F8FD0
:1002C0000F4B1A6820E9F00F106008B54FF050008E
:1002D00080F31188BFF34F8FBFF36F8F09F0BCFF1E
:1002E0004FF0000080F31188BDE8084019680868E5
:1002F000B0E8F00F80F30988BFF36F8F704700BF3D
:10030000C4000020EFF305807047000009488047D3
:1003100009480047FEE7FEE7FEE7FEE7FEE7FEE7E7
:10032000FEE7FEE7FEE7FEE704480549054A064BFF
:1003300070470000916E0008ED000008A035002015
:10034000A03B0020A0370020A037002010B54C10A3
:1003500084EA530404D54042C1F1000138BF491E6C
:100360001B4204D55242C3F1000338BF5B1E00F0AC
:1003700094FB14F0804F04D04042C1F1000138BF1B
:10038000491E14F0004F04D05242C3F1000338BF9D
:100390005B1E10BD0FB4044910B503AA029800F00B
:1003A000C1FE10BC5DF814FBB00000200FB404497E
:1003B00010B503AA029800F0B5FE10BC5DF814FB5E
:1003C000B00000200FB41CB5084B06AA7B44694658
:1003D0000090059800F077FE04460020694600F082
:1003E00085FE20461CBC5DF814FB00001D0D0000BE
:1003F00070B5044685690068C10601D5302600E065
:100400002026C00707D070BDD4E9012130469047AF
:10041000206A401C20626D1EF6D570BD70B5044682
:1004200085690078C00707D170BDD4E9012120207B
:100430009047206A401C20626D1EF6D570BD70B5D5
:100440000C460546012A05D02878800600D5EA69C1
:10045000002302E0012305E05B1C934202D2E05C32
:100460000028F9D1A869E618C01AA861286A1844BA
:1004700028622846FFF7BCFF04E0D5E9012114F803
:10048000010B9047B442F8D32846FFF7C7FF70BD71
:100490002DE9F0410646002410687529314616A55D
:1004A00010D000F07CFB002802DA404213A507E0E0
:1004B00031688A0701D512A502E0490704D511A5C4
:1004C000012401E000F074FB00210A2206F1240758
:1004D00009E0B0FBF2FCB0FBF2F302FB1C00303091
:1004E00078541846491C0028F3D123462A46304642
:1004F000BDE8F04100F065BB000000002D000000E9
:100500002B00000020000000F0B40D460188090512
:1005100002D5214C7C4402E01F4C7C440E34002167
:1005200000F1240608E002F00F071209E75D42EA35
:1005300003721B097754491C52EA0307F3D102786E
:100540000023120704D5702D06D009B102231134FF
:100550002246F0BC00F035BB01231034F8E770B53B
:1005600004460D462146106800F022FB024629464B
:100570002046BDE870400023C6E7D21D22F00703E5
:10058000D3E90023C0E70368126843F02003036047
:100590000823C3610023B7E702DA00002DE9F05F0A
:1005A000894604464FF0000ADFF874B1FB44C0F8F6
:1005B00020A02046E1688847002874D0252806D06E
:1005C000D4E901219047206A401C2062F1E700260F
:1005D0005F462046E16888472028054607DB312D25
:1005E00005D2781910F8200C08B10643F1E7B007DE
:1005F00001D526F00406C4F81CA00027C4F818A0F2
:100600002A2D09D0284606F08CFF38B304EB870862
:10061000303DC8F8185019E059F8041B204604EB87
:1006200087029161E1688847012F054618D1E0698A
:10063000002820DA26F020061DE0D8F8180000EB8C
:10064000800005EB40003038C8F818002046E1680B
:100650008847054606F065FF0028EED1012F0AD035
:100660002E2D08D12046E16888477F1C0546022FC1
:1006700046F02006C4DBA069002803DA404246F0B9
:100680000106A061F00701D026F010066C2D0BD0FA
:10069000682D09D04C2D39D06A2D35D0742D35D028
:1006A0007A2D33D016E038E0E1682F46204688479F
:1006B000B842054609D16C2F26D04FF48060E1681E
:1006C000064320468847054604E06C2F1AD04FF4B5
:1006D000807006430DB3A5F14100192802D82035DA
:1006E00046F400664A462946204626604E46FFF7F5
:1006F00057FD80B101280BD0F61D26F0070000F150
:10070000080956E74020E4E78020D8E70020D6E734
:1007100006F104094DE7284652E7206ABDE8F09F3C
:1007200092D900000FB400B58DB010A909900091C6
:100730000B904FF0FF300A9000200C900648784450
:100740000690064878446A4607900F9909A801F078
:100750005FF80DB05DF814FBEF100000071100000A
:100760002DE9FF5F1D464FF0FF3B91464FF000081B
:100770005F46D5E90146A96901987F1C8847296A27
:10078000824688470028F6D1BAF1FF3F0CD0002EF0
:1007900024F4C06419DD600614D5BAF12B0F09D01A
:1007A000BAF12D0F0ED103E0584604B0BDE8F09F1A
:1007B00044F48064A96901987F1C8847761E8246AC
:1007C000002E02DDBAF1300F03D0B9F1000F26D0B0
:1007D00032E0A969761E01987F1C44F400748847B2
:1007E000002E824605DDBAF1780F06D0BAF1580F17
:1007F00003D0B9F1000F10D01EE0B9F1000F02D004
:10080000B9F1100F18D1A969761E01987F1C24F444
:10081000007488478246102002E0082000E00A2089
:10082000814609E0A96908FB0908761E01987F1C2A
:1008300044F4007488478246002E05DD4946504640
:1008400000F056FD0028EDDAE96901988847A00517
:1008500002D46FF00100A8E7E00725D1600613D5A8
:10086000600502D5C8F1000000E0404629680A1D75
:100870002A600968220501D5087015E0220701D514
:10088000088011E008600FE02868011D29600068F9
:10089000210502D580F8008006E0210702D5A0F8E6
:1008A000008001E0C0F8008038467EE740EA01039E
:1008B00010B59B070FD1042A0DD310C808C9121F09
:1008C0009C42F8D020BA19BA884201D9012010BD43
:1008D0004FF0FF3010BD1AB1D30703D0521C07E010
:1008E000002010BD10F8013B11F8014B1B1B07D174
:1008F00010F8013B11F8014B1B1B01D1921EF1D1E5
:10090000184610BD032A40F2308010F0030C00F0AE
:10091000158011F8013BBCF1020F624498BF11F839
:1009200001CB00F8013B38BF11F8013BA2F10402F2
:1009300098BF00F801CB38BF00F8013B11F003036A
:1009400000F02580083AC0F0088051F8043B083ACE
:1009500051F804CBA0E80810F5E7121D5CBF51F870
:10096000043B40F8043BAFF30080D20724BF11F8EA
:10097000013B11F801CB48BF11F8012B24BF00F84F
:10098000013B00F801CB48BF00F8012B704710B5C0
:10099000203AC0F00B80B1E81850203AA0E8185077
:1009A000B1E81850A0E81850BFF4F5AF5FEA027C38
:1009B00024BFB1E81850A0E8185044BF18C918C0A7
:1009C000BDE810405FEA827C24BF51F8043B40F848
:1009D000043B08BF7047D20728BF31F8023B48BF2D
:1009E00011F8012B28BF20F8023B48BF00F8012B6B
:1009F000704702F0FF0343EA032242EA024200F09A
:100A000002B84FF000020429C0F0128010F0030C6D
:100A100000F01B80CCF1040CBCF1020F18BF00F8F1
:100A2000012BA8BF20F8022BA1EB0C0100F00DB8A0
:100A30005FEAC17C24BF00F8012B00F8012B48BFFE
:100A400000F8012B70474FF0000200B513469446A2
:100A50009646203922BFA0E80C50A0E80C50B1F116
:100A60002001BFF4F7AF090728BFA0E80C5048BF2A
:100A70000CC05DF804EB890028BF40F8042B08BFC8
:100A8000704748BF20F8022B11F0804F18BF00F8C4
:100A9000012B704770477047704753EA020C00F013
:100AA00069802DE9F04B4FF00006002B1FBFB3FA11
:100AB00083F503FA05F424FA05F65E4012BF1643E7
:100AC000B2FA82F502FA05F4C5F120051EBF22FA3A
:100AD00005FC44EA0C04203556EA044C4FEA144461
:100AE00018BF641C4FF000084FF00009904271EBF2
:100AF000030C39D3002919BFB1FA81F701FA07F6BF
:100B0000B0FA80F700FA07F6C7F120071EBF20FAF7
:100B100007FC46EA0C062037B6FBF4FCA7EB0507FA
:100B2000103F07F01F0BCBF120060CFA0BFB2CFA41
:100B300006F644BFB3460026202FA4BF5E464FF002
:100B4000000B5BEA060C08BF4FF0010B19EB0B0919
:100B5000ABFB027C48EB0608C01B06FB02CC0BFB80
:100B600003CC71EB0C01C1E70B46024641464846F7
:100B7000BDE8F08B13B54FF000004FF00001AFF36C
:100B80000080BDE81C40704710B500F075FE00689D
:100B900010BD10B5044600F06FFE046010BD09687A
:100BA0004A0501D540B27047C905FCD500B270476F
:100BB00009684A0501D5C0B27047C905FCD580B2A5
:100BC00070472DE9F0470D4699469246044600F1DC
:100BD00024080168880604D5E06921F0100121602D
:100BE00000E00120A84201DD471B00E00027A169C9
:100BF0007A1902EB0900081AA0612078C00602D415
:100C00002046FFF7F5FB002608E0D4E901211AF899
:100C100006009047206A401C761C20624E45F4DB9B
:100C20002078C0060AD52046FFF7E2FB06E0D4E9AB
:100C3000012130209047206A401C2062381EA7F115
:100C40000107F4DC07E0D4E9012118F8050090471A
:100C5000206A401C2062281EA5F10105F3DC204615
:100C6000FFF7DCFB2078000602D50220BDE8F08704
:100C70000120FBE711680268006A530501D508707E
:100C80000AE0D30501D5088006E0130603D5C21794
:100C9000C1E9000200E008600120704770472DE9BB
:100CA000FF4F0C461E464FF0FF378BB0D2E90001D4
:100CB000DDF860800A908A46C1F30A5505B93D46C1
:100CC000002108464FF00000BAF1000F00F4400088
:100CD00005DA00EB80004FF4400101EA50004FEAD2
:100CE0009059B9F1010F00DDB9460A9850EA4A005F
:100CF0000ED044F61050A5F2FF3545432F14B8F13D
:100D0000000F1ED07542291E1EDDC9F100021CE035
:100D1000B8F1010F4FF0000001D0302103E0F243A1
:100D200005E02154401CB042FBDB3046002200218C
:100D300021540B99C1F80880C1E900200FB0BDE82B
:100D4000F08FBD1B6D1CDEE74A4600DA694206A83B
:100D500001F072F906AB93E8070003AB83E80700E4
:100D600050460A9901F0B7FC8DE80700A0F5005045
:100D70001F3800900398002D0ADD42F21F014A46F9
:100D80000844002303A90390684601F063FF09E0CB
:100D9000A0F500504A461F38002303A90390684677
:100DA00001F082FF8DE807000004000C03D04FF033
:100DB000FF30410800E01046B8F1000F03D00022D8
:100DC000009215461EE0751E05D400F059FD303224
:100DD00062556D1EF9D5B3460122084302D00022A8
:100DE0007F1C04E02078302801D100227F1E002AD9
:100DF000099784D01DE0112D07DA00F041FD303253
:100E000062556D1C50EA0102F5D1084302D00098EA
:100E1000C8B10EE00021681E05E0235C625C6354EB
:100E20002254401E491C8142F7DBAB46A81B401EE2
:100E30000990002004F80B000B98099AC0F808806C
:100E4000C0E9002B7AE711264FF0000857E72DE99B
:100E5000F04F88460446D21D22F0070191B0D1E937
:100E60000001CDE90A0106F058FA02460B98C00FBE
:100E700001D02D2007E02068810701D52B2002E05A
:100E8000202101EAC000032A099001D0072A05DBCE
:100E900003464146204600F0BFFE0BE12078800665
:100EA00001D5E06900E00620B8F1650F814606D063
:100EB000B8F1660F18D0B8F1670F70D131E000209B
:100EC000B9F1110F009001DB112301E009F10103D9
:100ED0000AAA01A90CA8FFF7E2FEDDE90C700026C2
:100EE00009F10105834647E001204B4600904FF091
:100EF00000470AAA01A90CA8FFF7D1FEDDE90DB051
:100F00000C995D46002610B909F101000D18B9EBE6
:100F1000050003D4C0F1FF3609F10105A5EB090076
:100F20002BE0B9F1010F01DA4FF001090020B9F10E
:100F3000110F0090484601DD112300E003460AAA84
:100F400001A90CA8FFF7ABFEDDE90C704D460026A9
:100F50008346207800070AD4AB4500DA5D4601A835
:100F6000012D04DD411911F8011C302907D04F452E
:100F700002DA17F1040F04DA012082460FE06D1E39
:100F8000EEE7002F02DCED1B3E4403E0781CA84294
:100F900000DD7D1CB81B00F1010A4FF000472078EE
:100FA000000703D4AA4501DB4FF0FF3A0021B7F157
:100FB000004F0DF143088DF8431024D002202B235D
:100FC000002F01DA7F422D230A21021EA0F1010029
:100FD00000DC5FB197FBF1FC97FBF1F201FB1C7C9D
:100FE00017460CF1300C08F801CDEEE7A8F101002E
:100FF00003702188090501D5452100E06521A0F194
:10100000010800F8011C09980FA9A1EB0807FF1DB2
:1010100000B10120411901EBEA70A1693844081AB6
:10102000401EA0612078C00602D42046FFF7E0F9F8
:10103000099828B1D4E901219047206A401C206218
:101040002078C00622D52046FFF7D2F91EE0002EF8
:1010500004DBB34502DD01A8805D00E03020D4E967
:1010600001219047206A401C2062761CAAF10100F1
:101070005FEA000A0AD100F0FBFBC0680168405C2F
:10108000D4E901219047206A401C2062281EA5F166
:101090000105DCDC07E0D4E9012118F8010B9047D9
:1010A000206A401C2062381EA7F10107F3DC2046AD
:1010B000FFF7B4F9032011B041E6000001694A1CB2
:1010C00002610878704700B58FB0CDE90131002189
:1010D000059105497944CDE9031011466846FFF7AB
:1010E0005DFA0FB000BD0000E5FFFFFF0A6802F8DF
:1010F000010B0A60704710B5436913B1AFF300806C
:1011000001E0FFF79CF9012010BD127800F12401E5
:101110000A7000224A700122EDE711684FF0FF3299
:10112000E9E70000074B70B50D467B44FFF7CBFFA6
:101130000446284600F0F2FF10B14FF0FF3070BDBA
:10114000204670BDB37400002DE9FF5F15468A4646
:101150000446DFF8AC80F8440027D8E900103E468A
:10116000CDE9001010E03AF816106A4602A800F027
:10117000D9FF411C07D02178890603D5E2693918C7
:1011800091420DD80744761C2078800602D5E0698C
:10119000B84205DDAE42E6DB3AF816000028E2D19F
:1011A000A069C01BA0612046FFF722F9D8E9001012
:1011B000CDE90010002017E03AF818106A4602A89E
:1011C00000F0B0FFB0F1FF3F81460BD000250DF1DC
:1011D000080B05E0D4E901211BF8050090476D1CC0
:1011E0004D45F7D308F10100B0428046E4DB206AA8
:1011F000384420622046FFF711F9BDE8FF9F000048
:101200004ECE00002DE9F0418046D21D22F00702AB
:101210000025D2E90002F52915A614D0011E72F1AD
:10122000000106DA0023D0EB030063EB020211A6F3
:1012300008E0D8F800108B0701D50FA602E0490797
:1012400001D50EA601251146002408F1240704E06B
:1012500000F016FB30323A55641C50EA0102F7D117
:101260002B46324621464046BDE8F041FFF7A9BC77
:10127000000000002D0000002B00000020000000F6
:1012800030B4002100F1240408E002F00705D20880
:10129000303542EA4372DB086554491C52EA0305C3
:1012A000F3D10468002310A2250707D5A40600D4B3
:1012B00021B1C46901230DA2641EC46130BCFFF7D3
:1012C00080BC10B5044621461068FFF771FC024649
:1012D0002046BDE810400023D2E7D21D22F00701CE
:1012E000D1E90023CCE7000000000000300000003E
:1012F0003A2800D2303820F02002412A01D3A2F14E
:101300003700884201D34FF0FF3070472DE9FF4F7F
:1013100006468BB00878FF2806D0491C2D2805D03A
:1013200000244FF0000908E000200CE00124F8E759
:1013300009EB8903491C00EB43090878FF28F7D122
:1013400014B1C9F100008146107800252C46AA4648
:1013500029462D2801D02B2804D1521C2D2813D02A
:10136000002082468B461078FF280FD04FF0000CEB
:101370000A21521CA5FB017804FB018105FB0C111D
:10138000C5194BEB0104EEE70120EAE7002108460E
:101390004FF00000BAF1000F02D000EB80004008CF
:1013A000C0F38157012F01DD4FF0FF370E9955EA49
:1013B000040009EB01080BD04FF0020918F5FA7F81
:1013C00016DA4FEACA70002F706008DD012007E0CE
:1013D0004FEACA70C6E900B00FB0BDE8F08F002038
:1013E000306000F049FAC0F800901821084616E075
:1013F000B8F5FA7F18DD002F02DAF748784401E0EB
:10140000F6487844D0E90010C6E9001040EACA70F6
:10141000706000F031FAC0F80090142108460FB057
:10142000BDE8F04F0AF057BA002108464FF000001F
:10143000B8F10001099002DAC7F1000200E03A4673
:1014400001DAC8F1000106A800F0F6FD06AB93E84A
:10145000070003AB83E8070044F23E005BEA0401A7
:101460000090584604D144F21E012C465D4600917E
:10147000210C0904014306D10099240444EA1544CF
:101480002D041039009104F07F41014306D10099E9
:10149000240244EA15642D020839009104F07041D9
:1014A000014306D10099240144EA15742D01091F56
:1014B000009104F04041014306D10099A40044EAA0
:1014C0009574AD00891E009104F00041084304D1D9
:1014D00000986D196441401E00904FF001033A4698
:1014E0006846B8F1000FCDE9014503A902DD01F01E
:1014F000F0FB01E001F0C3FBBAF1000F04460D461A
:1015000001D084F00044002108464FF00000099902
:1015100040F2FF77484010F00C0F07D124F0004054
:10152000284303D0C4F30A50B84212D100F0A4F902
:10153000C0F80090C4F30A50B8420AD1A8487844D1
:10154000D0E90010C6E9001004F0004108437060C3
:1015500042E7C6E900543FE72DE9FF4F1F464FF031
:10156000000A4FF0FF38454691B0D7E90146CDF863
:101570003CA000F07DF9C0680168405C1090B9693A
:1015800012986D1C8847396A814688470028F6D131
:10159000B9F1FF3F0AD0002E24F4D06411DDB9F177
:1015A0002B0F08D0B9F12D0F0BD102E0404615B03A
:1015B00013E744F48064B96912986D1C8847761E5D
:1015C0008146600504A901D52D2000E02B20002EC6
:1015D00001F1010B0DF130088DF810003FDDB9F17C
:1015E000690F08D0B9F1490F05D0B9F16E0F02D0DB
:1015F000B9F14E0F1CD13B4601A8009580E850027E
:10160000DDE912126FF002000AF0F6F9C11CCED12A
:101610000EE0B96912986D1C884781461398761EB2
:1016200044F4007405600F98401C002E0F9016DDE6
:10163000B9F1300FEDD0B9F1780F02D0B9F1580FF0
:101640000DD10F9801280AD13B46CDE90054DDE9C0
:101650001212001F02960AF0CDF9C11CA7D11099F1
:1016600089453ED144F0800406E01399681CAAF134
:10167000010A44F400740860B9696D1C1298761E62
:10168000884730288146F0D02BE01099894505D154
:10169000200603D4761E44F0800418E0484605F086
:1016A00040FF08B3761E0DF123018B4544F400740E
:1016B00008D2A9F130000BF8010B200607D5AAF1DA
:1016C000010003E0200602D40AF101008246A005D1
:1016D00002D51399681C0860B96912986D1C884777
:1016E0008146002ED1DC53E0002E51DDB9F1650FAB
:1016F00002D0B9F1450F4BD1A00549D5B9696D1C90
:101700001298761E24F440748847002E81460CDD22
:101710002B2804D0B9F12D0F07D144F48074B96996
:1017200012986D1C8847761E8146E00501D52D2153
:1017300000E02B2108F8011BCDF8008021E0761E87
:101740000DF13901884544F400740CD2A9F1300040
:1017500010F0FF0088F8000002D10099884509D9EF
:1017600008F1010806E0E00501D51E4801E042F25B
:101770000F708246B96912986D1C8847814613988C
:101780000560002E04DD484605F0CBFE0028D6D1CA
:10179000F96912988847FF2053468BF8000088F8B3
:1017A000000000200A900B9004AA0CA90AA8FFF7D9
:1017B000ADFDA00502D46FF00100F8E614F0240F8F
:1017C00012D0E0071CD13868DDE90A12031D3B6026
:1017D0000068C0E9001213E06CCD00005ECD00008F
:1017E00022CC0000F1D8FFFF0AA9684605F028FEC8
:1017F000E00705D13868009A011D39600068026071
:101800002846D4E6026811441378016018467047F0
:10181000D16005497944516104497944116200213C
:101820001161114600F04EBAEDFFFFFFED00000020
:10183000426842B1016811F8013B23B1521EC0E970
:101840000012184670470121C160881E7047426827
:101850005AB1C368016843B983688B4205D0491EF9
:10186000521CC0E90012002070474FF0FF30704753
:10187000004870475C350020004870473C35002028
:1018800030B5B0F10A024FEA900E71F100034EEA52
:10189000817EB0EB0E0061EB91014FEA101E4EEA23
:1018A000017E10EB0E0041EB11114FEA102E4EEAB3
:1018B000016E10EB0E0041EB11214FEA104E4EEA83
:1018C000014E10EB0E0041EB1141401841F10001B7
:1018D0004FEAD00040EA41704FEAD10110EB800599
:1018E0004FEA810444EA907444EB01046D1944EB1F
:1018F0000404521BA3414FF0000348BF0A3200D535
:1019000030BD401C41F1000130BD10B5044600F06F
:1019100053FC0068005D00F0010010BD2DE9F04FA0
:1019200004460D46D21D22F0070089B0D0E9009789
:101930004846394605F0F1FC0246F80F01D02D2348
:1019400007E02068810701D52B2302E0202101EA6E
:10195000C0038DF820300BB1012000E00020032AE5
:10196000824601D0072A04DB2946204600F054F9BC
:101970003FE12078800601D40D2500E0E569C7F33A
:101980000A560D2D49DA00214FEA175B08464FF041
:101990000000002F00F4400007DA00EB80004FF455
:1019A000400100EBD07001EA60008115012901DDE2
:1019B0004FF0FF3100224FEA850CBCF1180F06D31F
:1019C0001346ACF118004FF08052C24003E04FF4D0
:1019D000801323FA0CF30CF10C0CBCF1200F04D390
:1019E000ACF1200C09FA0CF001E007FA0CF0002928
:1019F0004FF0004801DD18B90FE00ED140450CD37F
:101A000019EB02095F4121B9404502D19F4329EA00
:101A10000209BBEB175F00D0761C2088000502D5B9
:101A20007B48784402E07A487844193808AA302381
:101A300002F80A30037C0AF10101002E0AF1020AC1
:101A400053546A4602DC4FF0300101E04FF031019F
:101A50004FF001088DF8001002D0A6F2FF3603E027
:101A600059EA470100D06B4E002D02DC21780907AE
:101A700004D54FF002082E218DF80110C446002134
:101A80000BE0C7F303433F01C35C491C6D1E02F822
:101A90000830052908F1010801DA002DF1DC0021E8
:101AA0000CE000EB1973491C1B786D1E082902F825
:101AB00008304FEA091908F1010801DA002DF0DCBD
:101AC00021688B0602D516E0A8F10108E04505DD86
:101AD00002EB080313F8013C302BF5D0B8F1000FEE
:101AE00009DD02EB080313F8013C2E2B03D1090793
:101AF00001D4A8F10108002D05DD3E2102F80810EF
:101B00006D1E08F10108407C002E02F8080008F163
:101B1000010804DA2D20764202F8080002E02B20AA
:101B200002F808000A214FF47A70864208F1010891
:101B30000BDB96FBF0F3303302F8083096FBF0F342
:101B400008F1010800FB136601E0642E0CDB642041
:101B500096FBF0F3303302F8083096FBF0F308F10F
:101B6000010800FB136601E00A2E06DB96FBF1F08C
:101B7000303002F8080008F1010896FBF1F001FB93
:101B80001060303002F80800A16908F1010808EB84
:101B9000050202EB0A00081AA0612078C00602D4F0
:101BA0002046FEF725FC216A08AE01EB0A00206200
:101BB00004E0D4E9012116F8010B9047BAF1010ABB
:101BC000F7D22078C00602D52046FEF711FC6E46FB
:101BD00009E016F8010B3E280FD0D4E90121904707
:101BE000206A401C2062B8F10108F2D22046FEF7BC
:101BF00015FC09B00320BDE8F08F206A284420625C
:101C000003E0D4E90121302090476D1EEBD3F8E7C3
:101C10003DC6000002FCFFFF2DE9F0411F460446CF
:101C200003260168072A01F4006004DB08B116A549
:101C300005E016A503E008B115A500E015A521F003
:101C400010002060A069C01EA0610FB1401EA061FD
:101C50002046FEF7CDFB4FB1D4E90121384690472D
:101C6000206A401C2062C01C206206E0206AFAE75D
:101C7000D4E9012115F8010B9047761EF8D22046D1
:101C8000FEF7CCFBBDE8F0814E414E006E616E0068
:101C9000494E4600696E660010B5436913B1AFF353
:101CA000008001E0FFF750FA012010BD128800F11A
:101CB000240182840022C2840122EDE711684FF0E2
:101CC000FF32E9E72DE9F34F4FF0000A0C46564684
:101CD0008DB001200C9001F10C000B9062690B9803
:101CE00001219047051E2DD0252D2CD0216A884733
:101CF000C0B162690B9801219047216A884700288A
:101D0000F7D16269411E0B98904700E0761CA169EB
:101D10000D988847216A88470028F7D1E1690D9816
:101D20008847DBE7A1690D988847A842074601D19B
:101D3000761CD3E7E1690D9888477F1C02D1BAF180
:101D4000000F6FD06CE162690B9800273D46394661
:101D500090472A2804D162690B98012190470125F8
:101D6000DFF8D08262690B9801219047A0F1300121
:101D70000A290AD24745E5DC07EB870100EB41075A
:101D8000303FDFD445F01005ECE7E90601D46FF0F1
:101D900000476C280AD04C2814D0682815D06A282F
:101DA0000DD074281CD07A281AD01DE062690B98D7
:101DB000012190476C2802D045F0040514E045F05D
:101DC00002050DE045F020050AE062690B9801214B
:101DD0009047682802D045F0080505E045F4006505
:101DE00062690B9801219047C4E9015765283DD0ED
:101DF00019DC58287AD00CDC452837D004DC25289B
:101E000026D041289ED131E046282FD0472899D1AD
:101E10002CE05B2877D0612828D063287CD0642808
:101E200023D15AE0F7E06F2848D008DC66281DD09F
:101E300067281BD0692821D06E2816D127E070288A
:101E400045D0732868D0752847D078280DD14DE04B
:101E5000A1690D988847252805463FF469AFE169D7
:101E60000D9888476D1C3FF46AAFD9E00D99234661
:101E70006A466FF0010009F0BBFDC6E045F0400086
:101E800023464FF000026060A80736D43EE0E80722
:101E90007FF447AF2068011D21600068290501D546
:101EA00006701BE7290701D5068017E7A90703D5A8
:101EB000F117C0E9006111E706600FE745F0400047
:101EC00023464FF008026060A80716D41EE040F6D3
:101ED0000E0125EA0100606016E045F0400023464F
:101EE0004FF00A026060A80707D40FE045F04000F9
:101EF0006060A80708D5234610220D996FF00100F5
:101F0000AFF3008081E007E0102223460D996FF0C7
:101F10000100FEF725FC78E04FF0000963284F46EA
:101F2000C8464B46CB4602D05B2807D039E0207923
:101F3000C00601D40120A060012732E06269D4F814
:101F40000CB00B98012190475E2807D14FF0010992
:101F500049466269D4F80CB00B989047216939B9A9
:101F600000210A4603AB43F82120491C0829FADB6B
:101F7000D8B3216949B308F1010862690B980121BE
:101F800090475D28F4D1B9F1000F09D0002003A9D2
:101F900051F82020D24341F82020401C0828F7DBCC
:101FA00003AB2069002820794FEA40701ED05B46C1
:101FB0002246CDF80080CDE901970D9900286FF0F9
:101FC000010020DAAFF300801FE0C11703AA00EB85
:101FD000D1614B1121F01F0102EB8302411A1368FA
:101FE0000120884003431360C7E719E00D9922469A
:101FF00000286FF00100009702DAAFF3008004E0E0
:10200000AFF3008001E0AFF3008000280ADA401C43
:1020100006D10C9820B14FF0FF300FB0BDE8F08F23
:102020005046FAE7E90701D10AF1010A0644002007
:102030000C9053E6CCCCCC0C2DE9F04781461646EB
:102040008AB0354878440DC88DE80D003248784490
:10205000801C03AC0DC884E80D0041F69B30084499
:10206000372190FBF1F290FBF1F5A5F1800501FB22
:1020700012041B3C02D56442012000E00020DFF87E
:1020800098A080460027FA44AAF1BE0A0EE0E007B5
:102090000AD03246684607EB470101230AEB81016B
:1020A00000F002FE8DE8070064107F1C002CEED1CA
:1020B000194F7F44AE3F19E0E80715D007EB041035
:1020C0000DF1180A90E80E008AE80E00C068F04290
:1020D00001D1981908903246012306A903A800F0FF
:1020E000E3FD03AB83E807006D10641C002DE3D112
:1020F0004FF0010332466946B8F1000F03A802D041
:1021000000F0A8FD01E000F0CFFDC9E90001C9F829
:1021100008200AB0BDE8F087ACC00000007B00F0EA
:102120008000704770B516460C46054600F044F82E
:10213000036893F80101012806D0FF2C0FD8185D21
:1021400068B101202C7070BDD3F8070132462146DA
:1021500003F2071303442846BDE8704018474FF0C8
:10216000FF3070BD004870473C3500207546FFF7D2
:10217000F9FFAE4605006946534620F00700854644
:1021800018B020B5FEF7D0F8BDE820404FF00006AB
:102190004FF000074FF000084FF0000B21F007014F
:1021A000AC46ACE8C009ACE8C009ACE8C009ACE892
:1021B000C0098D467047000010B5FFF759FB001DA0
:1021C00010BD00BF858400002DE9FF4F1F464FF072
:1021D0003C0987B04FF00042DDE9141001F101081D
:1021E000DDF858A002EA4050039000200590834695
:1021F000054604460490B969461E08988847AAF126
:10220000010A0290BAF1000F3BDD02982E2815D08A
:102210001021FFF76DF800282EDB4FF0010B059918
:10222000014317D0B9F1000F0BDB4A46C11700F08C
:102230003FFA05430C43A9F1040905E0012004908D
:102240000BE008B145F0010501200590049820B984
:10225000361D02E0049800B1361FB969089808F1EC
:1022600001088847BBF1000FAAF1010A0290C9D00A
:102270000999C1F80080C5E70298702808D0502855
:1022800006D0F96908988847BBF1000F14D04FE0D9
:10229000002002900120BBF1000F049009D0B96921
:1022A000089808F101088847AAF10109B9F1000F5F
:1022B00007DCF969089888476FF001000BB0BDE8AA
:1022C000F08F2B2804D02D280CD14FF0FF30049034
:1022D000B969089808F101088847A9F10109B9F11D
:1022E000000FE6DD411CE4D00A21FFF701F80028C9
:1022F000DFDB029908F1010801EB810100EB4100ED
:102300000290B969089888470A21FEF7F1FF099AF7
:10231000A9F10109B9F1000FC2F8008001DD002820
:10232000E7DAF969089888470499029800FB016682
:1023300055EA040004D004F04041090002D006E050
:10234000039898E0A40044EA9574AD00B61E04F02A
:102350000041080002D16D196441761E159810F0F5
:10236000240F03D04FF00B095C4803E04FF028091D
:102370006FF07D008246564507DAAAEB06018944D4
:10238000B9F1410F01DD4FF0410901200021A9F110
:10239000010200F08DF9024628400B462140084317
:1023A00001D0012100E00021501E029143F1FF31D4
:1023B00028402140084301D0012000E0002002997C
:1023C000834651EA0B014FD0002108464FF0000030
:1023D000039900F4400039B100EB80004FF4400154
:1023E00000EBD07001EA60008015012802DD4FF09B
:1023F000FF3000E013D0401C36D0029860B3BBF130
:10240000000F0CD14A460120002100F051F928406C
:102410002140084301D0012000E00020E0B101206C
:102420004A46002100F044F9034640190A4661413A
:102430002D1A8C4111D3B9F1400F09DD159810F018
:10244000240F02D0AAF1340603E0AAF1170600E037
:10245000761C00254FF0004406E05B1E42F1FF327F
:1024600020EA030521EA0204CAF10100B04206DABB
:102470001B49039808430190002000900EE0039A46
:10248000C4F3D321E80A0A43164940EA44500A43F8
:102490003146CDE90002684605F038F8159810F08D
:1024A000240F0BD01598C00715D13868DDE900124C
:1024B000031D3B600068C0E900120CE002A86946F9
:1024C00004F0BEFF1598C00705D13868029A011DB7
:1024D0003960006802604046F0E6000002FCFFFF41
:1024E0000000F07F0000F03F2DE9FF4F92461D46AF
:1024F00085B04FF00041DDE9124BDDE914727F1E1B
:1025000001EA4B50414940F0FF4940EA01080021EF
:1025100022F020004928049102D04E2828D04CE017
:102520003BA0012607C88DE80700A9690698641C2E
:1025300088477F1E014606D41DF8060018B121F019
:10254000200181420BD0E96906988847032E34D0D8
:10255000082E32D06FF0010009B0BDE8F08F761C74
:10256000032E01D0082EE0D1601CCAF80000DCE781
:10257000A9690698641C88477F1E2AD420F0200091
:10258000412826D1A9690698641C88477F1E20D45B
:1025900020F020004E281CD1A9690698641C8847A9
:1025A0007F1E48F4002849F48009CAF8004001D48D
:1025B000282806D0E969069888475FEACB7012D0D0
:1025C00022E0A9690698641C88477F1E01D4002870
:1025D00003DAE96906988847BCE72928F1D1641C29
:1025E000CAF80040E9E71BF0240F07D028680499D7
:1025F000031D2B600068C0E9001805E02868021D73
:102600002A600068C0F800902046A5E70000F07F2F
:10261000494E46494E4954590000000010B5044641
:10262000AFF300802046BDE81040FDF71CBE00005F
:102630004FF0013C50F8042B51F8043B9A4221D151
:10264000A2EB0C03934313EACC1317D150F8042BDD
:1026500051F8043B9A4215D1A2EB0C03934313EAC1
:10266000CC130BD150F8042B51F8043B9A4209D1FA
:10267000A2EB0C03934313EACC13DBD04FF0000022
:10268000704700BFD01A01BAB1FA81F101F0180108
:1026900022FA01F0CB40C1F12001DBB2C0B2C01A76
:1026A0002CFA01F3D11A914311EAC311E6D1704714
:1026B000B2F120030AD5C2F1200301FA02F120FA97
:1026C00003F300FA02F041EA0301704700FA03F154
:1026D0004FF0000070475FEA400C08BF91F0000F18
:1026E0004FEA8C234FEAC12243EA51514FEA1C5072
:1026F00018BF00F5F0404FEA300018BF41F000412C
:102700005FEA6C5C00F02980BCF1FF3F08BF40F03D
:1027100080407047130C06BF12044FF0100C4FF0AE
:10272000000C130E04BF12020CF1080C130F04BFAF
:1027300012010CF1040C930F04BF92000CF1020C77
:10274000D30F04BF52000CF1010C11464FF00002F0
:10275000A0F11F00A0EB0C00704711F0004F08BF64
:10276000704731F000413FF4D5AF0B0C06BF0904B0
:102770004FF0100C4FF0000C0B0E04BF09020CF1CF
:10278000080C0B0F04BF09010CF1040C8B0F04BFE4
:1027900089000CF1020CCB0F04BF49000CF1010CB5
:1027A000CCF12003A0EB0C0022FA03F302FA0CF2A6
:1027B00041EA030100F10100704720F07F4C80EAFC
:1027C000030023F07F47ACEB070303F57C5300F0D5
:1027D000004003F1FF032DE980494FEA154B09B48E
:1027E0004FEA144325EA0B4E24EA03480FF204266D
:1027F00006EB132749083E785FEA320203FB0667BF
:10280000C7F5000707FB06F64FEA54374FEAD646EE
:1028100006F1020607FB066CCCF1005C4FEA1C4790
:102820002CEA074C07FB06F40CFB06F504EB1546F7
:102830004FEA961634BF00204FF000404FEAD137E0
:1028400006FB07FC4FEA1C4C0CFB0BF7D21B03FBEF
:102850000CF761EB07010CFB0EF7B0EB074072EBD6
:1028600017420CFB08F734BFA2EB0742B2EB07425A
:1028700061EB17414FEA0C444FEA910706FB07FC56
:102880004FEA1C4C0CFB0BF7B0EBC74072EB573216
:1028900003FB0CF734BFA2EBC742B2EBC74261EBBC
:1028A00057310CFB0EF7B0EBC70072EB57720CFB05
:1028B00008F734BFA2EBC702B2EBC70261EB577156
:1028C000039F4FEA816141EA921104EBCC044FEA85
:1028D000D1374FEA826206FB07FC42EA90124FEAC8
:1028E00080604FEA1C4C0CFB0BF7D21B03FB0CF770
:1028F00061EB07010CFB0EF7B0EB074072EB1742E0
:102900000CFB08F734BFA2EB0742B2EB074261EBC6
:1029100017414FEA8C554FEA910704EB9C2406FBC4
:1029200007FC4FEA1C4C0CFB0BF7B0EBC74072EBFB
:10293000573203FB0CF734BFA2EBC742B2EBC742DE
:1029400061EB57310CFB0EF7B0EBC70072EB57721F
:102950000CFB08F734BFA2EBC702B2EBC70261EB76
:10296000577115EB4C254FEA816141EA92114FEA0C
:1029700082624FEAD13742EA901206FB07FC44F12B
:1029800000044FEA80604FEA1C4C0CFB0BF7D21B93
:1029900003FB0CF761EB07010CFB0EF7B0EB0740F4
:1029A00072EB17420CFB08F734BFA2EB0742B2EB05
:1029B000074261EB174115EB1C154FEA813141EAE3
:1029C00092414FEA823242EA90424FEA80304FEA27
:1029D0000C7644F1000448EA03434EEA0B484FF0FA
:1029E000000EB2EB080C71EB030724BF62463946B8
:1029F0004EEB0E0E4FF0000B0018524149414BEBCD
:102A00000B0BB2EB080C71EB03077BF1000B24BF3F
:102A1000624639464EEB0E0E4FF0000B0018524145
:102A200049414BEB0B0BB2EB080C71EB03077BF14D
:102A3000000B24BF624639464EEB0E0E51EA0207E8
:102A400018BF46F0010616EB0E7655F1000254F160
:102A5000000103D5BDE88901BDE80088BDE8890112
:102A6000BDE80048B619524141EB0101A3F1010351
:102A7000704780807F7E7D7C7B7A797877767675EB
:102A80007473727171706F6E6E6D6C6C6B6A6A6963
:102A90006868676666656464636362616160605FFD
:102AA0005F5E5E5D5D5C5C5B5B5A5A595958585776
:102AB00057565655555554545353525252515150DE
:102AC00050504F4F4F4E4E4D4D4D4C4C4C4B4B4B31
:102AD0004A4A4A4949494848484747474746464677
:102AE00045454544444444434343434242424241B2
:102AF0004141000046EA0646A3F570534FEA1646E8
:102B000046EA42564FEAD22242EA415210B54FEA13
:102B1000D121A3F1010300F02FF820F0004000F1D3
:102B2000020C00F0004701EB00501146BCF5006FAD
:102B300040EA070000D210BDBAF1000F0AD01CB560
:102B400003B44FF004004FF004014FF000000FBC3D
:102B5000BDE810404FF00001BBF1010FB9BF0448C0
:102B60004FF0FF310348002140EA070010BD00BFCD
:102B7000FFFFEF7F0000F07F002B9C4630D47700F2
:102B80002BD01CB54FEA370703B44FF010004FF0BD
:102B90001001BAF1000F06D0BCF1000FDCBF40F00D
:102BA000080040F008014FF000000FBCBDE81040E5
:102BB0000BF1010BBBF1010F08BF5FEA170722BF42
:102BC00012F1010211F101014FF0004143F1000344
:102BD00000F0004043EA00007047F9D35708D0E7FF
:102BE00046EA064613F1400F4FEA16461FDD13F181
:102BF000200FDFBF16430A46002120335B42BED0C0
:102C0000C3F1200746EA064602FA07F74FEA1646DE
:102C100046EA0706C3F1200722FA03F201FA07F792
:102C200021FA03F14FF0000342EA0702A7E746EA60
:102C3000020646EA06464FEA164646EA0106BCBFC9
:102C400046EA0646360C4FF000034FF000024FF004
:102C5000000194E72DE9804C9A46934670B491E8C0
:102C6000380007C831EA400C48BF34EA430C03D5AA
:102C7000FFF7A3FDFFF780FFF0BCBDE8008C2DE956
:102C8000804C9A46934670B491E8380007C831EA00
:102C9000400C48BF34EA430C03D5FFF78EFDFFF725
:102CA00029FFF0BCBDE8008C2DE9804C9A46934684
:102CB00070B491E8380007C810F0804F08BF13F0D7
:102CC000804F03D100F01AF8FFF756FFF0BCBDE8C3
:102CD000008C2DE9804C9A46934670B491E83800F8
:102CE00007C810F0804F08BF13F0804F03D100F0E9
:102CF00005F8FFF7FFFEF0BCBDE8008C20F07F4731
:102D000080EA030023F07F4C07EB0C03A3F57C5310
:102D100000F00040A3F1FE0392F0000F00F0B3803A
:102D200095F0000F00F077802DE901494FEA11403E
:102D30004FEA144621EA004800FB06FC24EA064755
:102D400008FB06F607FB08F800FB07F718EB064838
:102D50004CEB164C4FEA124B18EB07484FEA15465E
:102D60004CEB174022EA0B4E0BFB06FC25EA06470C
:102D70000EFB06F607FB0EFE0BFB07F71EEB064EDF
:102D80004CEB164C4FF000061EEB074E4CEB174B6E
:102D900018EB0B0840F1000018EB0E0B58EB000885
:102DA00040F100008F1A4FF000013CBFC943661B81
:102DB00014BFB5EB040C00213CBFC943F61B4FEA1E
:102DC00017444EEA8E0E27EA04454FEA1C4704FBDF
:102DD00007622CEA074C05FB07F70CFB05F604FB22
:102DE0000CFC16EB074642EB174216EB0C4642EB87
:102DF0001C421BEB060658EB0202414146EA9E06C6
:102E000001D5BDE80189B619524141EB0101A3F199
:102E10000103BDE801894FEA14454FEA114724EA4E
:102E2000054621EA074C05FB07F406FB07F70CFBF8
:102E300006F105FB0CFC11EB074144EB17444FEA8C
:102E4000124711EB0C4144EB1C4422EA074C05FBF2
:102E500007F206FB07F70CFB06F605FB0CFC16EB6E
:102E6000074642EB174216EB0C4642EB1C456A182C
:102E700054F1000148BF7047B619524141EB0101BE
:102E8000A3F10103704795F0000F37D04FEA1142CC
:102E90004FEA144721EA024624EA074C02FB07F1F5
:102EA00006FB07F70CFB06F402FB0CFC14EB0744D3
:102EB00041EB17414FEA154714EB0C4441EB1C4121
:102EC00025EA074C02FB07F506FB07F70CFB06F6A5
:102ED00002FB0CFC16EB074645EB174516EB0C46C0
:102EE00045EB1C42121951F1000148BF7047B61959
:102EF000524141EB0101A3F1010370474FEA144530
:102F00004FEA114724EA054621EA074C05FB07F181
:102F100006FB07F70CFB06F24FF0000605FB0CFC66
:102F200012EB074241EB174112EB0C4251EB1C41F3
:102F300048BF7047921841EB0101A3F101037047AC
:102F400070B5044600688168C943C90717D1816814
:102F500021F00101816000F013FD05460AE000BF89
:102F600000F00EFD401B022804D920688068C04391
:102F7000C00706D020688068C043C007F0D000209A
:102F800070BDA06A40F01000A062E06A40F001004D
:102F9000E062012070BD0000F8B5002604460096EE
:102FA00000688168C943C9072DD0816841F00101DB
:102FB0008160164816490068B0FBF1F000E0401E41
:102FC00000900028FBD100F0DBFC054616E000BFB6
:102FD00000F0D6FC401B022810D920688068C0434E
:102FE000C0070BD0A06A40F01000A062E06A40F079
:102FF0000100E06284F824600120F8BD2068806848
:10300000C043C007E4D10020F8BD0000C00000208C
:1030100040420F00FEE70000014800F0D1BA000076
:10302000A00600203EB540F6FF74CDE900320A4606
:10303000014602940123024800F06CFD00203EBDD1
:103040008C0400203EB540F6FF74CDE900320A46FC
:10305000014602940123024800F084FE00203EBD98
:103060008C040020704772B6FEE70000F8B500241B
:10307000009490F824202546012A12D0012280F8DD
:1030800024204A681F23072A0DD20668776B521E38
:1030900002EB820293409F430B6893401F43776388
:1030A00019E00220F8BD06680D2A0AD2376BD21F3C
:1030B00002EB820293409F430B6893401F433763A8
:1030C00009E0F76A0D3A02EB820293409F430B68D6
:1030D00093401F43F7620A68072306680A2A0AD347
:1030E000F7680A3A02EB420293409F438B68934091
:1030F0001F43F76008E0376902EB420293409F43A9
:103100008B6893401F4337610A68102A01D0112A47
:1031100020D1124B02689A4217D193681B0219D42E
:10312000936843F4000393600968102912D10C4995
:103130000C4A0968B1FBF2F101EB8101490000E0A2
:10314000491E00910029FBD104E0816A41F0200171
:103150008162012480F824502046F8BD00240140FB
:10316000C000002040420F000068C06C70470000A3
:103170002DE9F0414FF0000704003D467ED0A06AE3
:10318000002628B9E66284F82460204600F07EF824
:103190002046FFF7D5FEA16AC90600D420B1A06A77
:1031A00040F01000A06269E0A16A21F4885141F06A
:1031B0000201A1626268E169237B0A4347EA430195
:1031C0000A43A1684FF48077B94209D0012907D09A
:1031D0005FF0000194F814C0BCF1010F02D00AE0C6
:1031E0003946F7E7F3B1A36A43F02003A362E36A29
:1031F00043F00103E3622368D3F804C02CF4694C64
:103200004CEA010CC3F804C021688B68DFF870C079
:1032100003EA0C0313438B60A168B9420BD0012968
:1032200009D00CE0DFF85CC0A3690CEB43330B431F
:1032300043F40061DFE7218A0D05A5F580152168BB
:10324000CB6A23F470032B43CB62216889680E4B51
:103250001940914208D1E662A16A21F0020141F0D1
:103260000101A162BDE8F081A06A20F0020040F0F7
:103270001000A062E06A40F00100E0620120F1E786
:10328000FDF7E1FF00E0FFFFFE0E1FFF00B585B078
:103290000021009101910291039100680E4988423A
:1032A00018D10E48816941F400718161816901F48E
:1032B00000710491816941F004018161806969466E
:1032C00000F00400049001200090032001900448C5
:1032D00000F060FA05B000BD00240140001002407B
:1032E000000801402DE9F84300270D4604460097E9
:1032F00000F046FB804620688168C90508D5A06AB1
:1033000040F02000A06284F824700120BDE8F8831A
:103310004168C90503D4C06A10F4700F2AD0022096
:1033200000F08EFE3B490968B1FBF0F620680369A6
:1033300039490B424FEA61014FEAA1121FD1C3681C
:103340004FEA611C13EA0C0F19D103690B4225D116
:10335000C068104222D1142023E0681C0AD02DB18D
:1033600000F00EFBA0EB0800A84203D9206800681B
:10337000800725D5206800688007EED52DE0036919
:103380000B4202D1C168114206D0026923490A42A8
:1033900006D1C068084203D1542002E0292000E091
:1033A000FC204643009816E0681C11D02DB100F0B7
:1033B000E7FAA0EB0800A8420AD90098B04207D269
:1033C000A06A40F00400A06284F8247003209DE706
:1033D0000098401C0090B042E6D321686FF01200C4
:1033E0000860A06A40F40070A06220688068C0F3A2
:1033F000424007280CD1207B50B9A06A20F480708D
:10340000A062A06AC00403D4A06A40F00100A062D8
:1034100000207BE7C0000020244992244992240028
:1034200070B5044690F8240001280DD0012084F8DE
:1034300024002046FFF7B0FD02004FF0000005D049
:1034400084F82400104670BD022070BDA16A40F2CD
:103450000123994341F48071A1621F4D23681F49E4
:10346000AB4218D10E6816F4702F14D0A66A46F439
:103470008016A6620E68760505D5A66A26F4005663
:1034800046F48056A662A66AF6040AD5E66A26F0D5
:103490000606E66206E0A66A26F48016A6625E6864
:1034A000E9E7E06284F824006FF002001860206809
:1034B0008368C3F34243072B05D1A84208D10968AA
:1034C00011F4702F04D0816841F480118160B9E754
:1034D000816841F4A001F9E700280140042401407B
:1034E00010B590F821100022022905D00421816333
:1034F00080F82020012010BD01680B6823F00E0326
:103500000B6001680B6823F001030B6090F84030FA
:10351000C46B012101FA03F3636080F8211080F885
:103520002020104610BD000010B590F82110002496
:10353000022903D00421816301243DE001680A6867
:1035400022F00E020A6001680A6822F001020A6095
:103550001A4A0168914201D1012121E0174A14322F
:10356000914201D110211BE0144A2832914201D12D
:10357000891515E0114A3C32914201D189140FE0BE
:103580000E4A5032914202D14FF4803108E00B4A8A
:103590006432914202D14FF4801101E04FF080710A
:1035A000064A083A5160012180F82110002180F874
:1035B0002010416B01B18847204610BD0800024031
:1035C0002DE9F05FC16B0C6801680B68D0F840C052
:1035D000042202FA0CF2494DDFF824A1494E4A4F69
:1035E000DFF828B1DFF828E122422CD05A072AD58B
:1035F0000A68920603D40A6822F004020A6001688D
:10360000A94201D1042219E0514501D1402215E01F
:10361000B14202D14FF4806210E0B94202D14FF4BE
:1036200080420BE0594502D14FF4802206E07145FB
:1036300002D14FF4800201E04FF080622F49083937
:103640004A60C16A3BE04FF0020808FA0CF818EA39
:10365000040F4FF000094FF0010235D05FEA837884
:1036600032D50B689B0605D40B6823F00A030B6068
:1036700080F821200168A94201D1022219E05145B8
:1036800001D1202215E0B14202D14FF4007210E0C6
:10369000B94202D14FF400520BE0594502D14FF428
:1036A000003206E0714502D14FF4001201E04FF004
:1036B0000072124908394A6080F82090816A002916
:1036C0001AD0BDE8F05F0847082505FA0CF5254239
:1036D00012D01B0710D50B6823F00E030B6090F877
:1036E0004010C36B02FA01F15960826380F8212017
:1036F00080F82090016BE2E7BDE8F09F08000240EF
:103700001C000240300002404400024058000240C9
:103710006C00024030B528B308C81349142219447C
:10372000B1FBF2F18900C163104981630221417745
:103730001A6843F6F0718A43D0E900142143D0E9B6
:1037400002452C4321430469214344692143846990
:10375000214311431960002141630122427701771F
:10376000084630BD012030BDF8FFFDBF000002401B
:1037700070B5044600F004F90546601C02D0044808
:103780000078044400F0FCF8401BA042FAD370BD5E
:10379000B40000202DE9F84FDFF8B8910024A9F11A
:1037A000040B23460F2709F1040AABF1040EC9E00C
:1037B0000125A5402A40AA427DD1674ED1F804C018
:1037C000ACEB0608B44532D014DCBCF1030F3AD0A0
:1037D00009DCBCF1000F2AD0BCF1010F1CD0BCF1F8
:1037E000020F31D11DE0BCF1110F17D0BCF1120F47
:1037F0002AD119E0B8F5881F19D006DCB8F5803F4A
:1038000015D0B8F5801F1FD111E0B8F5001F0ED0FC
:10381000B8F5041F18D10AE0CB6815E0CB681B1D72
:1038200012E0CB6808330FE0CB680C330CE08B68F8
:103830002BB1012B4FF0080303D0456104E00423B2
:1038400002E0056100E00023FF2A01D8064601E0FE
:1038500000F104064FEA840501D9A5F12005D6F848
:10386000008007FA05FC28EA0C0803FA05F548EA87
:103870000508C6F800804D68ED0062D5374DAE6989
:1038800046F00106AE61AD6924F0030605F00105BE
:103890000095334D06EB050CDCF80850A607360FF3
:1038A00007FA06F825EA0805DFF8B880404503D195
:1038B0004FF0000817E044E0DFF8AC80404502D14B
:1038C0004FF001080FE0DFF8A480404502D14FF02F
:1038D000020808E0DFF89880404502D14FF0030865
:1038E00001E04FF0040808FA06F848EA0508CCF8A9
:1038F00008804D68D9F80060ED024D4601D51643A9
:1039000000E096432E604D68DAF80060AD0255463F
:1039100001D5164300E096432E604D68DBF8006049
:10392000AD035D4601D5164300E096432E604D6819
:10393000DEF80060ED03754601D5164300E09643BE
:103940002E60641C0D682A46E5407FF431AFBDE867
:10395000F88F000008040140000011100010024020
:103960000000014000080140000C0140001001402F
:10397000001401400AB1016170470904FBE700002F
:103980000148806870470000B400002070B5040052
:1039900025D094F83D00002520B984F83C502046FD
:1039A00000F078FA242084F83D002068016821F0B6
:1039B000010101602068016841F400410160206854
:1039C000016821F40041016000F098FC4D4A6168F3
:1039D000914201D84C4900E04C49884201D2012073
:1039E00070BD4B492368B0FBF1F15E6826F03F06DD
:1039F0000E435E606368934206D94FF49673594351
:103A00004FF47A73B1FBF3F12368491C1E6A26F068
:103A10003F06314319626168914210D84900401E47
:103A2000B0FBF1F2521CC2F30B02042A01D20420B3
:103A300022E0B0FBF1F0401CC0F30B001CE0A268D8
:103A4000F2B301EBC10303EB0116431EB3FBF6F324
:103A50005B1C43F480431B0549D092B301EBC102C8
:103A600002EB0111401EB0FBF1F0401CC0F30B0053
:103A700040F4804040F400402168CA694CF6FF736E
:103A80009A431043C861D4E90710014320680268D3
:103A900022F0C00211430160D4E903010143206810
:103AA000826848F2FF339A4311438160D4E90501EB
:103AB00008432168CA6822F0FF021043C86001E091
:103AC0000EE016E02068016841F001010160256404
:103AD000202084F83D00256384F83E50002070BD0E
:103AE00001EB4106431EB3FBF6F35B1CB3E7012079
:103AF000C2E701EB4101401EB0FBF1F0401CC0F3F6
:103B00000B00B7E7A086010080841E0000093D007D
:103B100040420F002DE9FF4F83B00025DDE9107909
:103B20009A4693460446DDF848800095FFF728FF43
:103B3000064694F83D0020287CD1192301228549AE
:103B40002046009601F010FF0028F5D194F83C00C3
:103B500001286FD0012084F83C0020680168C90763
:103B600003D1016841F0010101602068016821F47E
:103B700000610160222084F83D00402084F83E006E
:103B800025646762A4F82A90608D20857248E062FF
:103B9000CDE9008653465A462046049901F0E6FDD9
:103BA00000287DD1208DDFF8B491202768B101284D
:103BB00014D00228206801681ED041F480610160A1
:103BC0002068416980690090B6E020684169816998
:103BD0000091016841F400710160ADE02068016866
:103BE00021F48061016072B62068416981690091A9
:103BF000016841F400710AE041F40061016072B6AD
:103C00002068416981690091016821F48061016047
:103C100062B691E0032868D801280CD002284346F8
:103C20004FF000024946204600960FD001F09CFE5E
:103C3000B0BB10E08BE032464146204601F03AFF2F
:103C400070BB20680069616A08706CE001F08CFE4E
:103C500030BB72B634E02068016821F480610160F5
:103C600072B620680069616A0870606A401C606210
:103C7000208D401E2085608D401E6085384846F2AC
:103C8000A8110068B0FBF1F0C0EBC00000EB8000B1
:103C90000090401E009008D020684069C04300E0BA
:103CA00029E040070CD50098F3E744F8305F6773CC
:103CB000A573206940F02000206162B625731AE0E8
:103CC0002068016841F40071016020680069616A40
:103CD0000870606A401C6062218D491E2185618DDB
:103CE000491E618562B621681BE032464146204686
:103CF00001F0E0FE18B1012007B0BDE8F08F2068A8
:103D00000069616A0870606A401C6062218D491E0A
:103D10002185618D491E618521684A69D243520718
:103D20000AD409690170606A401C6062208D401EDF
:103D30002085608D401E6085208D00287FF46AAF4D
:103D400084F83D7084F83E5084F83C50D4E702205B
:103D5000D2E70000020010000000FFFF0400010095
:103D6000C00000202DE9FF4F83B09A46DDE911978E
:103D700093460446DDF84080FFF702FE054694F8BE
:103D80003D0020287FD1192301224049204600957B
:103D900001F0EAFD002876D194F83C00012872D0A9
:103DA000012084F83C0020680168C90703D101683C
:103DB00041F0010101602068016821F400610160A7
:103DC000212084F83D00402084F83E00002626642F
:103DD000C4F82480A4F82A90608D20852C48E062E5
:103DE000CDE9007553465A462046049901F03CFD42
:103DF00070B930E02A463946204601F093FE58B1AA
:103E0000206C042804D12068016841F4007101602D
:103E1000012007B0BDE8F08F606A21680078086172
:103E2000606A401C6062218D491E89B22185628DC5
:103E3000521E628522685369DB435B070BD469B16C
:103E400000781061606A401C6062208D401E2085F1
:103E5000608D401E6085208D0028CBD12A463946D2
:103E6000204601F055FD0028CAD154F83D0B0168E9
:103E700041F400710160202004F81E09E67766779E
:103E80000020C6E7FFE70220C3E7000002001000A1
:103E90000000FFFF10B586B0002100910191029152
:103EA000039100681349884222D1134CA06940F065
:103EB0000800A061A069694600F0080004904FF472
:103EC0004070009012200190032003900B48FFF7F0
:103ED00061FC0B48416841F0E06141F00201416042
:103EE000E06940F40010E061E06900F40010049023
:103EF00006B010BD0054004000100240000C01400C
:103F000000000140024881680278114481607047D6
:103F1000B4000020074810B5016841F010010160AD
:103F2000032000F07BF80F2000F006F800F024F8E2
:103F3000002010BD0020024070B50D4D04464FF426
:103F40007A712878B1FBF0F00A490968B1FBF0F00A
:103F500000F0F3FC48B9102C07D200222146501E75
:103F600000F03CF800206C6070BD012070BD0000C6
:103F7000B4000020C00000200F4808B5816941F05E
:103F800001018161816901F001010091C16941F084
:103F90008051C161C069002200F0805000900F2163
:103FA000901E00F01BF80548416821F0E06141F0E7
:103FB0000071416008BD0000001002400000014097
:103FC000002809DB00F01F02012191404009800018
:103FD00000F1E020C0F8001170470000F0B40E4B73
:103FE0001B680C46C3F30223C3F10705042D00D957
:103FF0000425191D072901D2002300E0DB1E01263C
:1040000006FA05F1491E214099409E40761E164051
:104010003143F0BC03F095B90CED00E0064900F027
:10402000070208684FF6FF03184040EA0220034ADF
:1040300010430860704700000CED00E00000FA0536
:1040400010B501460020234C012922D0022939D085
:1040500010291DD161682268D20119D51E48C1F30B
:104060008342C903805C0AD561681B4AC1F34041A1
:10407000921E515C194AB2FBF1F1484301E0184924
:1040800048436168490203D440000321B0FBF1F0CA
:1040900010BD226AC2F30121012903D1920701D583
:1040A000C80310BD022905D1626A920702D549F6FC
:1040B000404010BD0329FCD121688903F9D54FF296
:1040C000244010BD00F02AF96168C1F38131491C18
:1040D0004900DBE700100240E8BA000800127A004D
:1040E00000093D002DE9F84305460078354CC0072E
:1040F00054D0E0690026C00008D4E06940F0805048
:10410000E061E069012600F0805000902E480168CF
:10411000C90512D40168804641F480710160FFF73F
:104120002FFC074605E000BFFFF72AFCC01B6428F0
:1041300023D8D8F80000C005F6D5206A10F44070E6
:1041400021D0A98801F4407181421CD0206A1F4906
:10415000012220F440700A6000220A602062C00739
:1041600011D0FFF70DFC074641F2883808E000BF88
:10417000FFF706FCC11B414502D90320BDE8F883C7
:10418000206A8007F4D5206A696820F440700843EB
:1041900020621EB1E06920F08050E061287880073D
:1041A00005D56068A96820F440400843606028781D
:1041B000C00605D56068E96820F4800008436060A7
:1041C0000020DBE700100240007000404004424243
:1041D0002DE9F0470F46050061D0434E306800F0EE
:1041E0000700B84209D2306820F007003843306039
:1041F000306800F00700B84251D128683B4C810775
:1042000012D5400703D5606840F4E060606028780C
:10421000000703D5606840F4605060606068A9687A
:1042200020F0F000084360602878C00728D0686854
:10423000012810D02168022810D0890700292EDA21
:10424000616821F0030101436160FFF799FB80463B
:1042500041F288390DE021688903EFE78901EDE734
:10426000FFF78EFBA0EB0801494502D90320BDE80A
:10427000F0876068696800F00C00B0EB810FEFD147
:10428000306800F00700B8420BD9306820F0070012
:1042900038433060306800F00700B84201D0012098
:1042A000E5E72878400705D56068E96820F4E06014
:1042B000084360602878000706D56068296920F403
:1042C000605040EAC100606000F038F86168084A58
:1042D000C1F30311515CC8400649086006480068F4
:1042E000FFF72AFE0020C2E7002002400010024033
:1042F000F8BA0008C0000020B800002004480549B2
:1043000000684968044AC1F30221515CC840704703
:10431000C00000200010024008BB00080448054906
:1043200000684968044AC1F3C221515CC840704723
:10433000C00000200010024008BB00080E4A51686F
:104340000E4801F00C03042B11D0082B0FD10C48A0
:10435000C1F38343C903C05C0AD55168084AC1F35D
:104360004041921E515C054A5043B0FBF1F070474A
:1043700004494843704700000010024000127A00D0
:10438000D6BA000800093D002DE9F84F040070D0AE
:104390002078C04DC00749D06868C0F3810001286B
:1043A00007D06868C0F38100022809D16868C0039B
:1043B00006D52868800339D560680028E7D035E045
:1043C0006068B0F5803F0BD010B1B0F5A02F11D0D0
:1043D000286820F480302860286820F4802002E0DB
:1043E000286840F480302860606890B1FFF7C8FA10
:1043F00006460AE0286840F480202860F0E700BF05
:10440000FFF7BEFA801B642873D828688003F7D5AD
:104410000CE0FFF7B5FA064605E000BFFFF7B0FA7B
:10442000801B6428F0D828688003F7D420789A4E3F
:1044300080074FF001094FF0000839D5686810F087
:104440000C0F07D06868C0F38100022809D16868A2
:10445000C00306D42868800714D52069012808D134
:1044600010E02069B0B1C6F80090FFF789FA07465E
:1044700005E00AE1FFF784FAC01B0228C4D82868C7
:104480008007F7D52868616920F0F80040EAC1008C
:1044900028600DE0C6F80080FFF772FA074604E0D6
:1044A000FFF76EFAC01B022823D828688007F7D4CC
:1044B000207800072CD57948A169D9B1C0F80090BF
:1044C000FFF75EFA074604E0FFF75AFAC01B02281E
:1044D0000FD8686A8007F7D571484FF4FA51006821
:1044E000B0FBF1F0009000BF0098411E0091FAD29D
:1044F0000EE080E0C0F80080FFF742FA074604E0D3
:10450000FFF73EFAC01B022875D8686A8007F7D407
:104510002078400760D5E8690027C00008D4E86922
:1045200040F08050E861E869012700F08050009079
:104530005C480168C90513D40168834641F4807161
:104540000160FFF71DFA824606E000BFFFF718FA88
:10455000A0EB0A0064284ED8DBF80000C005F5D5B2
:10456000E06801280AD008B1052813D0286A20F095
:1045700001002862286A20F0040002E0286A40F066
:1045800001002862E06841F2883B98B1FFF7F8F932
:1045900082460BE0286A40F004002862EEE700BF84
:1045A000FFF7EEF9A0EB0A0159455AD8286A8007AF
:1045B000F6D50CE0FFF7E4F9824605E0FFF7E0F9F5
:1045C000A0EB0A0159454CD8286A8007F6D41FB1E0
:1045D000E86920F08050E861E06988B36968C1F358
:1045E0008101022944D00228C6F8608004D0FFF778
:1045F000C7F9044638E034E0FFF7C2F9074604E0A3
:10460000FFF7BEF9C01B02282BD828688001F7D419
:10461000206AB0F5803F05D16868A16820F40030B9
:1046200008436860D4E908010843696821F47411FB
:1046300008436860C6F86090FFF7A2F9044606E0F8
:1046400025E000BFFFF79CF9001B022809D8286865
:104650008001F7D51BE000BFFFF792F9001B02288D
:1046600002D90320BDE8F88F28688001F4D40EE059
:104670000128F7D06868226A00F48031914204D1A1
:10468000616A00F47010884201D00120EAE700203E
:10469000E8E700000010024000004242800442426D
:1046A000C00000200070004070B5040009D0606AAE
:1046B000002540B125616561A56294F8510040B1C3
:1046C0000CE0012070BD6068B0F5827FF4D0E56138
:1046D000F2E784F85050204600F040F8022084F8B9
:1046E00051002068016821F040010160A088218903
:1046F00000F4827001F404410843A18901F40061CF
:104700000843217C01F002010843217D01F00101F1
:104710000843218B01F400710843217F01F0380127
:10472000084394F8201001F080010843218D01F422
:104730000051084321680860A069042101EA104083
:10474000216848602068C16921F40061C161656524
:10475000012084F85100002070BD000030B585B004
:104760000024009401940294039400681449884240
:1047700023D11448816941F480518161816901F438
:1047800080510491816941F00401816180690E4D7D
:1047900000F004000490A02000900220019003206B
:1047A000039069462846FEF7F5FF4020CDE9000456
:1047B000694628460294FEF7EDFF05B030BD0000C3
:1047C0000030014000100240000801402DE9F84F80
:1047D000044690F850000026984615468A4601285F
:1047E0000CD0012784F85070FFF7CAF8814694F87E
:1047F0005100B346012804D002269AE00220BDE809
:10480000F88FBAF1000F6FD0002D6DD0032084F81F
:104810005100C4F854B0C4F830A0A586E586C4F8A9
:1048200038B0A4F83CB0A4F83EB0C4F844B0C4F822
:1048300040B0A068B0F5004F09D12068016821F0B0
:10484000400101602068016841F4804101602068F6
:104850000168490603D4016841F040010160E06845
:10486000B0F5006F606803D058B3012D29D049E03E
:1048700008B1012D1FD1206B21680088C86006E0B7
:1048800020688168890709D5216B0988C160206B80
:10489000801C2063E08E401EE0860CE0FFF770F87D
:1048A000A0EB0901414503D3B8F1FF3F03D006E077
:1048B000B8F1000F03D0E08E0028E1D125E00326F7
:1048C00035E0206B21680078087306E02068816875
:1048D00089070AD5216B09780173206B401C20637E
:1048E000E08E401EE0860DE01FE0FFF749F8A0EBE8
:1048F0000901414503D3B8F1FF3F03D0DFE7B8F129
:10490000000FDCD0E08E0028E0D14A464146204628
:1049100002F08EF808B120206065A06818B9206800
:10492000C16880680090606D08B1012601E084F8DC
:10493000517084F850B0304661E710B5401EB0F1B8
:10494000807F01D3012010BD4FF0E02460610F2172
:10495000601702F0F6FC0020A06107202061002013
:1049600010BD70477047000070B590F83C20012AD8
:1049700026D0012480F83C40022280F83D200368C4
:104980005A689D6822F070060A6832435A600D4BDF
:1049900002689A4208D0B2F1804F05D00A4B9A4281
:1049A00002D00A4B9A4204D1496825F0800319438A
:1049B000916080F83D40002180F83C10084670BDB1
:1049C000022070BD002C014000040040000800409F
:1049D00010B5040003D094F83D0010B107E00120A9
:1049E00010BD002084F83C00204600F01FF8022093
:1049F00084F83D00211D206802F064FA012084F84B
:104A0000460084F83E0084F83F0084F8400084F8B3
:104A1000410084F8420084F8430084F8440084F89C
:104A2000450084F83D00002010BD000008B5154A7F
:104A30000168154891420ED1816941F4006181619C
:104A40008069002200F40060009005211920FFF722
:104A5000C5FA192010E0B1F1804F11D1C16941F0C0
:104A60000101C161C069002200F0010000901146FF
:104A70001C20FFF7B3FA1C20BDE80840FFF7A0BADE
:104A800008BD0000002C01400010024090F83D10CD
:104A9000012901D001207047022180F83D100168F2
:104AA000CA6842F00102CA6000680B49884208D017
:104AB000B0F1804F05D00949884202D008498842A8
:104AC00004D1816801F00701062903D0016841F093
:104AD0000101016000207047002C014000040040EB
:104AE0000008004070B5044690F83C0000250128FD
:104AF00017D0012684F83C60022084F83D0020682D
:104B0000826822F0770222F47F428260086850288F
:104B100038D00DDC20284FD005DC90B3102811D1FF
:104B20004AE0022070BD302846D040280AD13BE040
:104B300060282FD070280DD0B0F5805F03D0B0F57D
:104B4000005F12D0012584F83D60002084F83C000D
:104B5000284670BDCB68D1E90121206802F0F5F943
:104B60002068816841F0770109E0CB68D1E9012133
:104B7000206802F0EAF92068816841F48041816090
:104B8000E1E719E0CA684968206802F093FA502109
:104B9000206806E0CA684968206802F09CFA602133
:104BA000206802F0DCF9CEE7CA684968206802F0A4
:104BB00081FA40212068F4E7226801461046F0E7B8
:104BC0002DE9F0410D46040003D094F83D0018B1E2
:104BD00008E00120BDE8F081002084F83C00204678
:104BE00000F040F8022084F83D002068816844F21B
:104BF000070291438160211D206802F063F9226859
:104C000090689169166A2B68AF69034340F20330DC
:104C1000814341EA0721A868EF6908434FF6FC4148
:104C20008843E96840EA0720014328692F6A0001A8
:104C300040EA0730084369686D6926F0220646EAB3
:104C40000515294393602268906154F8460B016270
:104C5000012004F81F09E0752076E0762077A07522
:104C60000020B7E700B585B00021009101910291C5
:104C70000391274B0268274927489A4226D1CA69DF
:104C800042F00202CA61CA6902F0020204928A6911
:104C900042F008028A61896901F00801049130211B
:104CA0000091012102916946FEF774FD1B4841689D
:104CB00021F4406141F0E06141F400614160002273
:104CC00005211D20FFF78AF91D201DE0144B9A4293
:104CD0001CD1CA6942F00402CA61CA6902F0040226
:104CE00004928A6942F008028A61896901F0080128
:104CF0000491C02100916946FEF74CFD0022052178
:104D00001E20FFF76BF91E20FFF75AF905B000BD12
:104D10000004004000100240000C0140000001406F
:104D20000008004070B590F83E60044690F83F508F
:104D300090F8423090F84320022021B104290ED08F
:104D4000012E1BD114E0012E18D1012B16D184F8AD
:104D50003E0084F8420001220021206820E0012D5D
:104D60000CD1012A0AD184F83F0084F8430014E0F2
:104D7000012D03D1012B01D1012A01D0012070BDE9
:104D800084F83E0084F83F0084F8420084F8430031
:104D900001220021206802F0CBF8012204212068C2
:104DA00002F0C6F82068016841F0010101600020AE
:104DB00070BD704770B50446006801694FF000058A
:104DC000C943890715D4C168C943890711D4E91EAD
:104DD000016101202077206880698007204602D089
:104DE000FFF7E7FF04E000F0DBF8204600F06DF984
:104DF000257720680169C943490717D4C168C943A9
:104E0000490713D46FF00401016102202077206864
:104E1000806910F4407F204602D0FFF7CAFF04E00B
:104E200000F0BEF8204600F050F9257720680169AF
:104E3000C943090716D4C168C943090712D46FF0E2
:104E400008010161042020772068C069800720469E
:104E500002D0FFF7AEFF04E000F0A2F8204600F019
:104E600034F9257720680169C943C90617D4C16898
:104E7000C943C90613D46FF01001016108202077DF
:104E80002068C06910F4407F204602D0FFF791FFF0
:104E900004E000F085F8204600F017F92577206837
:104EA0000169C943C90708D1C168C943C90704D109
:104EB000891E0161204600F057F920680169C94345
:104EC000090609D4C168C943090605D46FF08001F9
:104ED00001612046FFF745FD20680169C943490685
:104EE00009D4C168C943490605D46FF04001016186
:104EF000204600F015FA20680169C94389060BD4E1
:104F0000C168C943890607D46FF0200101612046BA
:104F1000BDE87040FFF726BD70BD000010B586B03B
:104F2000002100910191029103910068B0F1804F3E
:104F30002BD11748816941F004018161816901F039
:104F400004010491816941F00801816180690224B2
:104F500000F0080004904FF40040CDE900046946D9
:104F60000C480394FEF716FC0820CDE900046946BE
:104F700009480394FEF70EFC0848416821F440718B
:104F800041F0E06141F48071416006B010BD000065
:104F90000010024000080140000C014000000140E8
:104FA000704770B5044690F83C0000260D46012875
:104FB0000FD0012084F83C006AB1042A1DD0082AD1
:104FC0002FD00C2A3FD00126002084F83C00304628
:104FD00070BD022070BD206801F0CAFF20688169A1
:104FE00041F0080181612068816921F0040181613B
:104FF000206881692A69114311E0206801F0E0FF0F
:105000002068816941F4006181612068816921F42F
:1050100080618161206881692A6941EA0221816198
:10502000D2E7206801F0F8FF2068C16941F008016B
:10503000C1612068C16921F00401C1612068C169B2
:105040002A69114311E0206802F012F82068C16952
:1050500041F40061C1612068C16921F48061C161CE
:105060002068C1692A6941EA0221C161ACE710B533
:10507000040003D094F83D0010B107E0012010BDFA
:10508000002084F83C00204600F01EF8022084F83E
:105090003D00211D206801F015FF012084F8460025
:1050A00084F83E0084F83F0084F8400084F8410012
:1050B00084F8420084F8430084F8440084F84500F2
:1050C00084F83D00002010BD7047704710B50446BD
:1050D000022249B104290ED0082913D094F84100C6
:1050E000012816D0012010BD94F83E000128F9D106
:1050F00084F83E200FE094F83F000128F2D184F8B4
:105100003F2008E094F840000128EBD184F84020CB
:1051100001E084F841200122206801F009FF0F49D5
:105120002068884203D1426C42F400424264206805
:10513000884208D0B0F1804F05D00949884202D09A
:105140000849884204D1816801F00701062903D08B
:10515000016841F001010160002010BD002C0140F8
:1051600000040040000800402DE9F05FDFF88C915A
:10517000614BD0F800C0B9F908201968501C07B27B
:10518000501E6FF0010E06B242F210788C450FD11E
:10519000486A404502D2A9F8087004E0486A4045D0
:1051A00001D3A9F80860C1F82480704619681DE091
:1051B000DFF850A1DFF848B1BAF90840DBF8000089
:1051C000631C1DB2631E1BB2844512D1426A424564
:1051D00002D2AAF8085004E0426A424501D3AAF874
:1051E0000830C0F82480DBF8001070460861BDE884
:1051F000F09FDFF81481D8F80080C445F7D1D1F8CA
:1052000000C0CCF3001889F81080D0F800C0D34655
:10521000CCF300188AF81080D1F824C0D1F82C8083
:1052200002FB08C29246C9F80420426AD0F82CC09A
:1052300004FB0C28354CCBF804802278521C2270D9
:10524000D9F800C044F63822ACEB0A0494424C462C
:1052500005DD27814E6AC96A07FB016108E0AAEBF8
:105260000C07974206DD26814F6AC96A06FB017169
:10527000C9F80410DBF800105C46A1EB0806964262
:1052800005DD2581416AC06A05FB001008E0A8EB36
:105290000101914205DD2381416AC06A03FB0010D0
:1052A0006060D9F804004F46A0EB0C0006F09CF9B2
:1052B000174D294606F09AF8164E314606F0C0F909
:1052C0001549F86001F020FC80F00040F860786833
:1052D0003860D4E90010401A06F086F9294606F035
:1052E00085F8314606F0ACF90C49E06001F00CFCA1
:1052F000E060606820607AE7100600200435002036
:10530000C805002020350020380500205901002064
:10531000000082440000C84264340020B4340020FD
:105320007047704770470000F8B501680446086888
:10533000CA684B6910F00F0F4FF0000559D003F009
:10534000010602F49077374365D0C10705D0D10537
:1053500003D5616C41F001016164410705D5D907AE
:1053600003D0616C41F002016164810705D5D90762
:1053700003D0616C41F004016164010707D502F0BC
:105380002001314303D0616C41F008016164616C1C
:1053900000293AD0800604D5900602D5204601F0B7
:1053A000DBFE20684069616CC0F38010090700D4FF
:1053B00060B3204601F0A9FE20684069400621D56F
:1053C0002068143050E8001F21F0400140E800122E
:1053D000002AF5D1E06BA8B16D494163E06BFEF79F
:1053E000A3F8002811D0E06B416B01B0BDE8F0409C
:1053F000084783060FD593060DD52046BDE8F84033
:1054000001F0AABE2046FFF78DFFF8BD2046FFF74A
:1054100089FF6564F8BD266B2023012E7CD1C6066A
:105420007AD5D60678D508684868009048694FF064
:105430000206400640D5E16B086840680004000C95
:10544000E8D0A28D8242E5D9E085886920282DD058
:1054500020680C3050E8001F21F4807140E80012F1
:10546000002AF5D12068143050E8001F21F0010116
:1054700040E80012002AF5D12068143050E8001FDF
:1054800021F0400140E80012002AF5D184F84230B2
:10549000256320680C3050E8001F21F0100140E81F
:1054A0000012002AF5D1E06BFEF71AF86663A08DB2
:1054B000E18D401A81B22AE0A08DE18D401A81B2BF
:1054C000E08D0028A6D00029A4D022680C3252E832
:1054D000000F20F4907042E80007002FF5D12068FB
:1054E000143050E8002F22F0010240E80027002F7E
:1054F000F5D184F84230256320680C3050E8002F45
:1055000022F0100240E80023002BF5D1666320460C
:10551000FFF707FFF8BDFFE705062BD5150629D5D0
:1055200094F841002128F5D1A068B0F5805F01D141
:105530002069B0B1206A411C21622168007848606E
:10554000E08C401E0004000CE084E3D12068C168B8
:1055500021F08001C1602068C16841F04001C16054
:10556000D8E7206A0088C0F308004860206A801CE1
:105570002062E5E74006CDD55006CBD5CA68204667
:1055800022F04002CA6084F8413000F0CBF8C1E755
:10559000FB70000870B5040004D094F841000025A9
:1055A00010B106E0012070BD84F84050204600F0A4
:1055B00023F8242084F841002068C16821F40051B8
:1055C000C160204601F02AFE2068016921F4904163
:1055D00001612068416921F02A0141612068C168A8
:1055E00041F40051C1606564202084F8410084F8D2
:1055F00042006563002070BD70B586B00025064688
:10560000009501950295039500682349884240D191
:105610002249886940F480408861886900F48040AC
:105620000490886940F00400886188691C4C00F08F
:10563000040004904815009002200190032003907C
:1056400069462046FEF7A6F82015CDE90005694613
:1056500020460295FEF79EF8134C12482060102059
:10566000C4E901058020C4E9030580016561C4E93E
:1056700006502046FEF74EF808B1FDF7F4FCB4637F
:105680000022052125206662FEF7A8FC2520FEF7F2
:1056900097FC06B070BD00000038014000100240C9
:1056A0000008014044000240A006002090F842306B
:1056B000202B01D00220704721B11AB100230363CF
:1056C00001F008BE0120704770B51349884213D11C
:1056D000124D134AEC1E297820781154401C20707A
:1056E0000122E11C0C48FFF7E1FF29780120232962
:1056F00003D0572900D1607070BD00212170084986
:10570000A070322201F13200FBF7FCF8BDE87040D6
:1057100032210348FBF775B958060020030000202A
:105720005C01002000680349884202D1024901203F
:10573000087070470038014004000020FEE701684F
:105740004A69D24352050FD46FF480624A61002146
:1057500040F8301F202242738173026942F0040234
:105760000261017301207047002070472DE9F84F56
:105770000446006889460B9D01689846174641F427
:10578000806101602068016841F4807101600095CA
:105790004FF0011B0022594620460A9B00F0E4F816
:1057A0004FF4007A40B120680068C00501D5C4F804
:1057B00040A00320BDE8F88F216809F0FE000861D1
:1057C0002B46284920460A9A00F016F9F0BB2068BB
:1057D0004169806900902A4620460A9900F0A2F9A2
:1057E00040B1206C04283AD12068016841F400716E
:1057F000016034E0FEB2B8F1010F09D02168380A27
:1058000008612A4620460A9900F08CF90028E8D160
:10581000206806612A4620460A9900F083F900288C
:10582000DFD12068016841F4807101600095002299
:10583000594620460A9B00F097F80028B3D121680A
:1058400009F0FF0040F00100086100E007E02B468E
:10585000044920460A9A00F0CFF80028AAD0012077
:10586000A8E70000020001002DE9F84304460068A3
:105870000D46DDE9089701689846164641F48071A7
:1058800001604B4600224FF001112046009700F0C6
:105890006BF848B120680068C00502D54FF400706D
:1058A00020640320BDE8F883216805F0FE0008614C
:1058B0003B464A461549204600F09EF888B92068C4
:1058C0004169806900903A464946204600F02AF92D
:1058D00048B1206C042804D12068016841F40071AB
:1058E00001600120DEE7F5B2B8F1010F09D02168AF
:1058F000300A08613A464946204600F013F900286C
:10590000E7D1206805610020CCE70000020001001B
:1059100070B516460D4604461EE02046FFF70FFF01
:1059200008B1012070BD681C16D0FEF729F8801B55
:10593000A84200D885B920684069C04340070BD50C
:10594000002044F8300F20216173A073216941F0D9
:10595000200121612073E4E720684069C0434007CB
:10596000DBD4002070BD00002DE9F04798461746B3
:105970000D460446C1F30746DDF820902AE000BF3B
:10598000B8F1FF3F26D0FDF7FBFFA0EB0901414531
:1059900002D8B8F1000F1DD12068012E16D0806901
:1059A00025EA00000004000C12D00020B84211D1FA
:1059B000002044F8300F20216173A073216941F069
:1059C0002001216120730120BDE8F0874069E7E7ED
:1059D0000120EBE72068012E0AD0806925EA00004B
:1059E0000004000C06D00020B842C9D00020EBE72C
:1059F0004069F3E70120F7E72DE9F047984616469E
:105A00000D4604464FF000094FF0200AC1F3074746
:105A100023E020684069C043400515D42068016830
:105A200041F40071016021686FF480604861C4F83E
:105A3000309084F83DA084F83E90216C41F0040140
:105A4000216484F83C9021E0701C06D0FDF798FF9B
:105A5000A0EB0800B04203D816B1012F1FD021E0FF
:105A60002068012F15D0806925EA00000004000C91
:105A700018D000BF44F8309F84F80DA084F80E9031
:105A8000216941F02001216184F80C900120BDE8DA
:105A9000F087406925EA00000004000CEAD1206884
:105AA000406901E02068806925EA00000004000CDC
:105AB000AFD1ECE72DE9F041002590460E460446B3
:105AC000202728E04069C043C0060CD454F8301B9E
:105AD0006FF01000486144F810596777A577206A85
